:100000000C9463000C948B000C948B000C948B006C
:100010000C948B000C948B000C948B000C948B0034
:100020000C948B000C948B000C948B000C948B0024
:100030000C948B000C948B000C948B000C948B0014
:100040000C9423040C948B000C9493040C946D0476
:100050000C948B000C948B000C948B000C948B00F4
:100060000C948B000C948B000000000024002700EF
:100070002A0000000008000201000003040700003D
:1000800000000000000000000000230026002900FE
:10009000010204081020408001020408102001021F
:1000A0000408102000000000250028002B00040494
:1000B0000404040404040202020202020303030310
:1000C00003030A05E90711241FBECFEFD8E0DEBF06
:1000D000CDBF22E0A6E4B1E001C01D92AE30B20770
:1000E000E1F711E0A0E0B1E0EAE7F7E102C0059036
:1000F0000D92A634B107D9F710E0C2E6D0E004C0F3
:100100002197FE010E94AF09C136D107C9F70E94AD
:10011000E0050C94B00B0C9400004F925F926F922C
:100120007F928F929F92AF92BF92FF922091F601A1
:100130003091F7018217930708F043C02B01662422
:100140007724852E962EA72EBB24B82DA42F209180
:10015000FC01F42C222391F0E22FF0E0E49DD00189
:10016000E59DB00DF49DB00D1124FB2E289D40019E
:100170001124B92D249F90011124A32FE091020294
:100180002091FD013091FE015091FF01E51323C044
:10019000FC01EE0FFF1F8E0F9F1F820F931FE09138
:1001A000FF01E80FF92FF11DF082E0910002E80F46
:1001B000F92FF11DB08320910102820F911DFC01E6
:1001C000A083FF90BF90AF909F908F907F906F9093
:1001D0005F904F900895880F991F880F991F820F85
:1001E000931FE80FF92FF11D1082D9CF90E0FC0189
:1001F000EE58FF4F2491FC01E057FF4F3491FC0172
:10020000E255FF4FE491EE23C9F0222339F0233069
:1002100001F1A8F4213019F1223029F1F0E0EE0FBC
:10022000FF1FEC55FF4FA591B4918FB7F894EC9157
:10023000611126C030953E233C938FBF089527302F
:10024000A9F02830C9F0243049F7809180008F7DD3
:1002500003C0809180008F7780938000DFCF84B5CA
:100260008F7784BDDBCF84B58F7DFBCF8091B000CD
:100270008F778093B000D2CF8091B0008F7DF9CF7F
:100280003E2BDACFCF93DF9390E0FC01E057FF4F96
:10029000249182559F4FFC0184918823D1F090E0F6
:1002A000880F991FFC01E859FF4FA591B491FC01FB
:1002B000EC55FF4FC591D49161110EC09FB7F894D2
:1002C0008C91E22FE0958E238C932881E223E883A2
:1002D0009FBFDF91CF9108958FB7F894EC91E22BF7
:1002E000EC938FBFF6CF3FB7F89480914D0190917A
:1002F0004E01A0914F01B091500126B5A89B05C0B9
:100300002F3F19F00196A11DB11D3FBFBA2FA92F94
:10031000982F8827BC01CD01620F711D811D911D91
:1003200042E0660F771F881F991F4A95D1F70895FD
:100330000F931F93CF93DF93CDB7DEB729970FB6F7
:10034000F894DEBF0FBECDBF0E947301009103027F
:100350001091040220910502309106026017710786
:100360008207930740F46093030270930402809322
:10037000050290930602009103021091040220915D
:10038000050230910602601B710B820B930B6C32DD
:10039000714081059105C0F2F8948091F801909127
:1003A000F9019A838983E091FD01F091FE01DF015B
:1003B0001196808189879091F401E0910702F09174
:1003C000080280910902992309F445C09081982B75
:1003D00098879081809589238F838F818C8388E093
:1003E0008B8358856F8149853B812C8189819A81D6
:1003F000508347FD252F3A952083262F39F0441F3F
:1004000000C000006083000000C0F2CF38E04D91D2
:1004100060830000019761F7F0930802E093070200
:1004200049873B832C839A83898378940E94730144
:100430006093030270930402809305029093060276
:1004400029960FB6F894DEBF0FBECDBFDF91CF91D6
:100450001F910F9108959081982B98879081809596
:1004600089238F838F818E8388E08D8358856F8168
:1004700049853D812E8189819A81508347FD252FB1
:1004800000C000C0208300C000C000C000C000C089
:1004900060830000262F3A9541F0441F000000C001
:1004A00000C000C000C000C0E8CF38E04D9100C0DF
:1004B000608300C0019709F7F0930802E0930702F8
:1004C00049873D832E83AFCFAF92BF92CF92DF9209
:1004D000EF92FF920F931F93CF93DF936C017B01F9
:1004E0008B01040F151FEB015E01AE18BF08C0178A
:1004F000D10759F06991D601ED91FC910190F081FD
:10050000E02DC6010995892B79F7C501DF91CF91BF
:100510001F910F91FF90EF90DF90CF90BF90AF9021
:100520000895FC01538D448D252F30E0842F90E0F9
:10053000821B930B541710F0CF96089501970895DE
:10054000FC01918D828D981761F0A28DAE0FBF2FA7
:10055000B11D5D968C91928D9F5F9F73928F90E0FD
:1005600008958FEF9FEF0895FC01918D828D98176C
:1005700031F0828DE80FF11D858D90E008958FEFA9
:100580009FEF0895FC01918D228D892F90E0805C72
:100590009F4F821B91098F739927089581E591E000
:1005A0000E94C20221E0892B09F420E0822F0895E5
:1005B00080E090E0892B29F00E94CE0281110C94FA
:1005C00000000895FC01A48DA80FB92FB11DA35AF6
:1005D000BF4F2C91848D90E001968F739927848F63
:1005E000A689B7892C93A089B1898C918370806486
:1005F0008C93938D848D981306C00288F389E02D27
:1006000080818F7D80830895EF92FF920F931F93D7
:10061000CF93DF93EC0181E0888F9B8D8C8D9813B5
:100620001AC0E889F989808185FF15C09FB7F894C1
:10063000EE89FF896083E889F9898081837080640D
:1006400080839FBF81E090E0DF91CF911F910F9158
:10065000FF90EF900895F62E0B8D10E00F5F1F4F67
:100660000F731127E02E8C8D8E110CC00FB607FC76
:10067000FACFE889F989808185FFF5CFCE010E9404
:10068000E202F1CFEB8DEC0FFD2FF11DE35AFF4F8E
:10069000F0829FB7F8940B8FEA89FB898081806292
:1006A000CFCFCF93DF93EC01888D8823B9F0AA894F
:1006B000BB89E889F9898C9185FD03C0808186FD1D
:1006C0000DC00FB607FCF7CF8C9185FFF2CF80816C
:1006D00085FFEDCFCE010E94E202E9CFDF91CF91FD
:1006E0000895FC0101900020E9F73197AF01481B04
:1006F000590BBC0181E591E00C946402CF93DF9328
:10070000EC018091EE019091EF01009759F020915A
:10071000F0013091F1012C173D0720F081E0DF91CD
:10072000CF910895BE016F5F7F4F0E94DA0A009754
:1007300089F09093EF018093EE01D093F101C09383
:10074000F0012091F2013091F301232B39F7FC01E4
:100750001082E4CF80E0E3CF0F931F93CF93DF931A
:100760008C01EC0109900020E9F72197C81BD90BF7
:10077000CE010E947E032091EE013091EF018111A4
:1007800017C02115310519F0C9010E94510A1092B4
:10079000EF011092EE011092F3011092F20110920B
:1007A000F1011092F001DF91CF911F910F91089507
:1007B000D093F301C093F201B801C901DF91CF9149
:1007C0001F910F910C94A90B2091F2013091F3012C
:1007D000232B39F421E0FC018081882361F020E0A3
:1007E0000AC0BC018091EE019091EF010E94A00B24
:1007F00021E0892BA1F7822F08950F931F9390E09A
:10080000FC01E057FF4F6491FC01E255FF4FE4917A
:10081000F0E0EE0FFF1FEA57FF4F8591949100E43F
:1008200012E42FE030E0462F0E94C50461157105E7
:100830008105910529F06F5F7F4F8F4F9F4F9F700C
:100840001F910F9108951F920F920FB60F921124CE
:100850002F933F938F939F93AF93BF9380914901C1
:1008600090914A01A0914B01B0914C013091480107
:1008700023E0230F2D3758F50196A11DB11D2093BC
:1008800048018093490190934A01A0934B01B09392
:100890004C0180914D0190914E01A0914F01B0917A
:1008A00050010196A11DB11D80934D0190934E0101
:1008B000A0934F01B0935001BF91AF919F918F9141
:1008C0003F912F910F900FBE0F901F90189526E823
:1008D000230F0296A11DB11DD2CF1F920F920FB60A
:1008E0000F9211242F933F934F935F936F937F93B6
:1008F0008F939F93AF93BF93EF93FF9381E591E025
:100900000E94E202FF91EF91BF91AF919F918F9171
:100910007F916F915F914F913F912F910F900FBEFB
:100920000F901F9018951F920F920FB60F921124DF
:100930002F938F939F93EF93FF93E0916101F09139
:1009400062018081E0916701F091680182FD1BC026
:10095000908180916A018F5F8F7320916B01821764
:1009600041F0E0916A01F0E0EF5AFE4F958F8093DD
:100970006A01FF91EF919F918F912F910F900FBE80
:100980000F901F9018958081F4CFCF92DF92EF9255
:10099000FF920F931F93E82FF92F05C00150110903
:1009A0002109310961F1908196239417B9F305C0AB
:1009B000015011092109310911F1908196239413F5
:1009C000F7CFC12CD12CE12CF12C0AC08FEFC81A23
:1009D000D80AE80AF80A0C151D052E053F0579F01E
:1009E00080818623841791F36C2D7D2D8E2D9F2D74
:1009F0001F910F91FF90EF90DF90CF90089560E0EE
:100A000070E080E090E01F910F91FF90EF90DF90F9
:100A1000CF900895109254011092530188EE93E004
:100A2000A0E0B0E08093550190935601A093570148
:100A3000B09358018AE091E0909352018093510164
:100A400085EC90E090935E0180935D0184EC90E0F2
:100A50009093600180935F0180EC90E0909362013D
:100A60008093610181EC90E0909364018093630135
:100A700082EC90E0909366018093650186EC90E0B3
:100A8000909368018093670110926A0110926B0144
:100A900010926C0110926D011092F5011092FC0100
:100AA00010920302109204021092050210920602A4
:100AB00081E0809302028093FF011092000292E095
:100AC000909301028093F4018AE590E09093F901FC
:100AD0008093F8010E94B5099093FE018093FD0177
:100AE000009709F459C02AE5FC0111922A95E9F70B
:100AF0008EE190E09093F7018093F60186E090E01C
:100B00009093FB018093FA018091F501882341F0D5
:100B100061E086E00E94420160E086E00E94F6000B
:100B2000E4EBF0E0E491F0E0EE0FFF1FEC55FF4F37
:100B3000859194919093080280930702E6E9F0E092
:100B4000E491E09309021092EF011092EE011092ED
:100B5000F1011092F0011092F3011092F20183E082
:100B600090E00E947E032091EE013091EF0181110F
:100B70001CC02115310519F0C9010E94510A1092BB
:100B8000EF011092EE011092F3011092F201109217
:100B9000F1011092F00108951092F9011092F801FC
:100BA0001092F7011092F601A9CF83E090E09093A4
:100BB000F3018093F20168E171E0C9010C94A90B83
:100BC000CF93DF93CDB7DEB7A1970FB6F894DEBF12
:100BD0000FBECDBF789484B5826084BD84B581603A
:100BE00084BD85B5826085BD85B5816085BD8091F8
:100BF0006E00816080936E00109281008091810070
:100C00008260809381008091810081608093810067
:100C1000809180008160809380008091B100846029
:100C20008093B1008091B00081608093B00080918A
:100C30007A00846080937A0080917A008260809349
:100C40007A0080917A00816080937A0080917A00A6
:100C5000806880937A001092C100E0916101F09168
:100C6000620182E08083E0915D01F0915E0110827B
:100C7000E0915F01F09160018FEC80831092690137
:100C8000E0916501F091660186E08083E091630167
:100C9000F0916401808180618083E0916301F09133
:100CA0006401808188608083E0916301F091640138
:100CB000808180688083E0916301F091640180818C
:100CC0008F7D80838091FA019091FB0197FD08C090
:100CD00061E00E94420160E08091FA010E94F6000A
:100CE00081E08093F5018091FD019091FE01892BB7
:100CF00011F00E94980161E089E00E94420160E0E9
:100D00008AE00E94420160E083E00E9442019AE092
:100D1000892E912CA12CB12C20E0222E20E0322E05
:100D200060E089E00E94F60083E090E00197F1F72F
:100D300061E089E00E94F60083E290E00197F1F71C
:100D400060E089E00E94F6008AE00E94FD036B01EA
:100D50007C0183E00E94FD0370934701609346018C
:100D6000C701B60122E030E040E050E00E94900967
:100D7000CA01B9010E9403082DE13AE545E952E4B0
:100D80000E94C6080E9438096B017C018CE191E049
:100D90000E947103F7FE5AC06DE281E591E00E9466
:100DA000040322273327A9012C193D094E095F09A5
:100DB00019A28E010F5D1F4FCA01B901A50194014F
:100DC0000E946E09605DF80162938F012115310563
:100DD0004105510589F70115110519F0C8010E9457
:100DE000710387E291E00E9471038AE291E00E9420
:100DF000710380914601909147018938F3E19F0783
:100E0000DCF582E391E00E94AC0382E391E00E9472
:100E1000E4038823E1F1F12CE12C8091F60190911B
:100E2000F701E816F90608F0C8C040E056E66FEF93
:100E300070E0E0FE04C04EEB56E965E270E0C701E9
:100E40000E948D008FEFE81AF80AE7CFA7019601FC
:100E500019A28E010F5D1F4FCA01B901A5019401AE
:100E60000E946E09605DF80162938F0121153105C2
:100E70004105510589F7AFCF895893418031974299
:100E800018F487E391E0BFCF8CE391E0BCCF87E318
:100E900091E00E94E403882301F1EBE0CE16D10437
:100EA000E104F104A4F010E000E08091F6019091DB
:100EB000F7010817190708F080C04AEF57E066EFFE
:100EC00070E0C8010E948D000F5F1F4FEECFFAE067
:100ED000CF16D104E104F104C9F48CE391E00E943F
:100EE000E40310E000E0811125C08091F6019091AB
:100EF000F70108171907A8F540E05FEF60E070E020
:100F0000C8010E948D000F5F1F4FEFCF10E000E07F
:100F10008091F6019091F7010817190708F04DC06C
:100F20004AEF56EF67E070E0C8010E948D000F5F46
:100F30001F4FEECF2BE0C216D104E104F104ACF256
:100F40008091F6019091F70108171907B0F540E07C
:100F500050E06FEF70E0C8010E948D000F5F1F4FDF
:100F6000EFCF8091FD019091FE01892B11F00E943D
:100F700098010E9473012B013C0182E3C82ED12C01
:100F8000E12CF12C0E9473016419750986099709F7
:100F9000683E734081059105A8F381E0C81AD10825
:100FA000E108F108E8EE4E0EE3E05E1E611C711CE4
:100FB000C114D104E104F10429F72114310409F426
:100FC000AFCE0E94CE02882309F4AACE0E94000070
:100FD000A7CE8091EE019091EF01009711F00E9451
:100FE000510A8091FD019091FE010E94510A809169
:100FF000FA019091FB0197FD03C060E00C9442015F
:101000000895E89409C097FB3EF4909580957095FB
:1010100061957F4F8F4F9F4F9923A9F0F92F96E944
:10102000BB279395F695879577956795B795F111B9
:10103000F8CFFAF4BB0F11F460FF1BC06F5F7F4F56
:101040008F4F9F4F16C0882311F096E911C0772368
:1010500021F09EE8872F762F05C0662371F096E871
:10106000862F70E060E02AF09A95660F771F881F40
:10107000DAF7880F9695879597F9089597F99F67FE
:1010800080E870E060E008959FEF80EC0895002410
:101090000A941616170618060906089500240A94DD
:1010A00012161306140605060895092E0394000C63
:1010B00011F4882352F0BB0F40F4BF2B11F460FFF2
:1010C00004C06F5F7F4F8F4F9F4F089557FD90581B
:1010D000440F551F59F05F3F71F04795880F97FBFC
:1010E000991F61F09F3F79F08795089512161306B6
:1010F0001406551FF2CF4695F1DF08C016161706E5
:101100001806991FF1CF8695710561050894089519
:10111000E894BB2766277727CB0197F908952F928C
:101120003F924F925F926F927F928F929F92AF9277
:10113000BF92CF92DF92EF92FF920F931F93CF93C4
:10114000DF93CDB7DEB7CA1BDB0B0FB6F894DEBF5B
:101150000FBECDBF09942A88398848885F846E8481
:101160007D848C849B84AA84B984C884DF80EE80CB
:10117000FD800C811B81AA81B981CE0FD11D0FB6D4
:10118000F894DEBF0FBECDBFED0108950E94DA08CE
:101190000C9455080E944E0858F00E94470840F0F1
:1011A00029F45F3F29F00C943E0851110C948908F2
:1011B0000C9444080E94660868F39923B1F3552300
:1011C00091F3951B550BBB27AA276217730784075A
:1011D00038F09F5F5F4F220F331F441FAA1FA9F3F0
:1011E00035D00E2E3AF0E0E832D091505040E695DE
:1011F000001CCAF72BD0FE2F29D0660F771F881F3F
:10120000BB1F261737074807AB07B0E809F0BB0B31
:10121000802DBF01FF2793585F4F3AF09E3F510545
:1012200078F00C943E080C9489085F3FE4F3983EF4
:10123000D4F3869577956795B795F7959F5FC9F72E
:10124000880F911D9695879597F90895E1E0660FAF
:10125000771F881FBB1F621773078407BA0720F028
:10126000621B730B840BBA0BEE1F88F7E095089591
:101270000E943F096894B1110C94890808950E9456
:101280006E0888F09F5798F0B92F9927B751B0F0A2
:10129000E1F0660F771F881F991F1AF0BA95C9F7FA
:1012A00014C0B13091F00E948808B1E008950C9408
:1012B0008808672F782F8827B85F39F0B93FCCF3BB
:1012C000869577956795B395D9F73EF49095809577
:1012D000709561957F4F8F4F9F4F0895A1E21A2E11
:1012E000AA1BBB1BFD010DC0AA1FBB1FEE1FFF1FCA
:1012F000A217B307E407F50720F0A21BB30BE40B1A
:10130000F50B661F771F881F991F1A9469F7609560
:101310007095809590959B01AC01BD01CF0108951A
:10132000052E97FB1EF400940E94A70957FD07D0D5
:101330000E946E0907FC03D04EF40C94A709509547
:101340004095309521953F4F4F4F5F4F08959095B1
:101350008095709561957F4F8F4F9F4F0895EE0F49
:10136000FF1F0590F491E02D09940F931F93CF93E5
:10137000DF938230910510F482E090E0E0910C025E
:10138000F0910D0230E020E0B0E0A0E0309799F459
:101390002115310509F44AC0281B390B24303105C9
:1013A000D8F58A819B816115710589F1FB019383D1
:1013B0008283FE0111C0408151810281138148174F
:1013C0005907E0F04817590799F4109761F0129601
:1013D0000C93129713961C933296CF01DF91CF9105
:1013E0001F910F91089500930C0210930D02F4CFFA
:1013F0002115310551F04217530738F0A901DB01DF
:101400009A01BD01DF01F801C1CFEF01F9CF90933F
:101410000D0280930C02CDCFFE01E20FF31F8193EA
:1014200091932250310939832883D7CF20910A0222
:1014300030910B02232B41F42091020130910301E2
:1014400030930B0220930A02209100013091010198
:101450002115310541F42DB73EB74091040150915B
:101460000501241B350BE0910A02F0910B02E217F3
:10147000F307A0F42E1B3F0B2817390778F0AC01B7
:101480004E5F5F4F2417350748F04E0F5F1F509394
:101490000B0240930A02819391939FCFF0E0E0E02A
:1014A0009CCFCF93DF930097E9F0FC013297138232
:1014B0001282A0910C02B0910D02ED0130E020E00B
:1014C0001097A1F420813181820F931F20910A028D
:1014D00030910B022817390709F061C0F0930B0215
:1014E000E0930A02DF91CF910895EA01CE17DF075A
:1014F000E8F54A815B819E0141155105B1F7E9018B
:10150000FB83EA8349915991C40FD51FEC17FD075E
:1015100061F4808191810296840F951FE90199837E
:101520008883828193819B838A83F0E0E0E0129636
:101530008D919C9113970097B9F52D913C9111973E
:10154000CD010296820F931F20910A0230910B0267
:101550002817390739F6309751F510920D0210927D
:101560000C02B0930B02A0930A02BCCFD383C283B8
:1015700040815181840F951FC817D90761F44E5FD0
:101580005F4F88819981480F591F518340838A8119
:101590009B81938382832115310509F0B0CFF093AD
:1015A0000D02E0930C029ECFFD01DC01C0CF13823F
:1015B0001282D7CFB0E0A0E0E0EEFAE00C94910800
:1015C0008C01009751F4CB010E94B5098C01C80130
:1015D000CDB7DEB7E0E10C94AD08FC01E60FF71FD4
:1015E0009C0122503109E217F30708F49DC0D9018C
:1015F000CD91DC911197C617D70798F0C530D1056A
:1016000030F3CE0104978617970708F3C61BD70B54
:101610002297C193D1936D937C93CF010E94510A7D
:10162000D6CF5B01AC1ABD0A4C018C0E9D1EA09159
:101630000C02B0910D02512C412CF12CE12C109791
:1016400031F580910A0290910B028815990509F0F5
:101650005CC04616570608F058C080910001909172
:101660000101009741F48DB79EB74091040150915C
:101670000501841B950BE817F90708F055C0F09396
:101680000B02E0930A02F90171836083A0CF8D9170
:101690009C91119712966C90129713967C901397C9
:1016A000A815B90559F56C0142E0C40ED11CCA1445
:1016B000DB0420F1AC014A195B09DA011296159797
:1016C00080F06282738251834083D9016D937C9351
:1016D000E114F10471F0D7011396FC93EE93129785
:1016E00076CF22968C0F9D1FF90191838083F301A1
:1016F000EFCFF0930D02E0930C0269CF4816590624
:1017000008F42C017D01D3019ACFCB010E94B509C9
:101710007C01009749F0AE01B8010E94970BC80107
:101720000E94510A870153CF10E000E050CFFB0127
:10173000DC0102C001900D9241505040D8F708954D
:10174000FB01DC018D91019080190110D9F3990BF7
:101750000895FB01DC0101900D920020E1F708954E
:1017600010E0C2E6D0E004C0FE010E94AF0921965D
:0A177000C336D107C9F7F894FFCF84
:10177A0000000E02800000000000040364029102CF
:10178A005103C202A002B4026F6666004469737410
:10179A00616E63653A20000D0A0020696E63686510
:1017AA00730049646C65004175746F0067616D650B
:0617BA002074696D65005A
:00000001FF
