:020000040000FA
:100000000C9463000C948B000C948B000C948B006C
:100010000C948B000C948B000C948B000C948B0034
:100020000C948B000C948B000C948B000C948B0024
:100030000C948B000C948B000C948B000C948B0014
:100040000C947A030C948B000C94EA030C94C40374
:100050000C948B000C948B000C948B000C948B00F4
:100060000C948B000C948B000000000023002600F1
:10007000290000000000240027002A0000000008DA
:10008000000201000003040700000000000000005F
:10009000010204081020408001020408102001021F
:1000A0000408102000000000250028002B00040494
:1000B0000404040404040202020202020303030310
:1000C00003036104B70611241FBECFEFD8E0DEBFE3
:1000D000CDBF11E0A0E0B1E0E6EDF2E102C0059095
:1000E0000D92A632B107D9F721E0A6E2B1E001C036
:1000F0001D92A63EB207E1F710E0C2E6D0E004C0D0
:100100002197FE010E943308C136D107C9F70E942A
:1001100003050C945E090C9400008F929F92AF929D
:10012000BF92CF92DF92EF92FF920F931F93FC0149
:100130004B01AA24BB24C52ED62EE72EFF24BC2DAE
:10014000A42F9091D401B82C992391F0A92FB0E05D
:10015000A89D9001A99D300DB89D300D1124B32E9E
:100160009C9D60011124BD2D949F80011124A12F1D
:100170004091DA012091D5013091D6018091D701CB
:10018000481324C0CF01880F991F8E0F9F1F820F25
:10019000931FE091D701E80FF92FF11DB082E09194
:1001A000D801E80FF92FF11DB0832091D901820FFA
:1001B000911DFC01A0831F910F91FF90EF90DF90A4
:1001C000CF90BF90AF909F908F900895CF01880FF0
:1001D000991F880F991F820F931FFC01E40FF11DD7
:1001E0001082D7CF90E0FC01E458FF4F2491FC012E
:1001F000E057FF4F3491FC01E255FF4FE491EE23AD
:10020000C9F0222339F0233001F1A8F4213019F18B
:10021000223029F1F0E0EE0FFF1FEC55FF4FA591C2
:10022000B4918FB7F894EC91611126C030953E23BC
:100230003C938FBF08952730A9F02830C9F02430AF
:1002400049F7809180008F7D03C0809180008F7777
:1002500080938000DFCF84B58F7784BDDBCF84B5FA
:100260008F7DFBCF8091B0008F778093B000D2CF8D
:100270008091B0008F7DF9CF3E2BDACFCF93DF9303
:1002800090E0FC01E057FF4F249182559F4FFC0105
:1002900084918823D1F090E0880F991FFC01EE58DB
:1002A000FF4FA591B491FC01EC55FF4FC591D4913E
:1002B00061110EC09FB7F8948C91E22FE0958E23C8
:1002C0008C932881E223E8839FBFDF91CF9108952B
:1002D0008FB7F894EC91E22BEC938FBFF6CF3FB73A
:1002E000F89480912B0190912C01A0912D01B09157
:1002F0002E0126B5A89B05C02F3F19F00196A11D20
:10030000B11D3FBFBA2FA92F982F8827BC01CD015F
:10031000620F711D811D911D42E0660F771F881FBE
:10032000991F4A95D1F708950F931F93CF93DF93A9
:10033000CDB7DEB729970FB6F894DEBF0FBECDBF9D
:100340000E946F010091DB011091DC012091DD0121
:100350003091DE01601771078207930740F46093C4
:10036000DB017093DC018093DD019093DE0100914D
:10037000DB011091DC012091DD013091DE01601B79
:10038000710B820B930B6C32714081059105C0F2A9
:10039000F8948091D0019091D1019A838983E09162
:1003A000D501F091D601DF01119680818987909166
:1003B000CC01E091DF01F091E0018091E10199230E
:1003C00009F445C09081982B988790818095892366
:1003D0008F838F818C8388E08B8358856F814985DB
:1003E0003B812C8189819A81508347FD252F3A9545
:1003F0002083262F39F0441F00C0000060830000D6
:1004000000C0F2CF38E04D9160830000019761F7A2
:10041000F093E001E093DF0149873B832C839A83CB
:10042000898378940E946F016093DB017093DC01F3
:100430008093DD019093DE0129960FB6F894DEBF1C
:100440000FBECDBFDF91CF911F910F910895908185
:10045000982B98879081809589238F838F818E83B5
:1004600088E08D8358856F8149853D812E81898102
:100470009A81508347FD252F00C000C0208300C013
:1004800000C000C000C000C060830000262F3A9565
:1004900041F0441F000000C000C000C000C000C008
:1004A000E8CF38E04D9100C0608300C0019709F7A4
:1004B000F093E001E093DF0149873D832E83AFCFC6
:1004C000AF92BF92CF92DF92EF92FF920F931F9362
:1004D000CF93DF936C017B018B01040F151FEB01A0
:1004E0005E01AE18BF08C017D10759F06991D60157
:1004F000ED91FC910190F081E02DC6010995892BC9
:1005000079F7C501DF91CF911F910F91FF90EF9087
:10051000DF90CF90BF90AF900895FC01538D448D34
:10052000252F30E0842F90E0821B930B541710F09E
:10053000CF96089501970895FC01918D828D9817AB
:1005400061F0A28DAE0FBF2FB11D5D968C91928D83
:100550009F5F9F73928F90E008958FEF9FEF0895B4
:10056000FC01918D828D981731F0828DE80FF11D7D
:10057000858D90E008958FEF9FEF0895FC01918D98
:10058000228D892F90E0805C9F4F821B91098F7391
:10059000992708958FE291E00E94BE0221E0892B05
:1005A00009F420E0822F089580E090E0892B29F063
:1005B0000E94CA0281110C9400000895FC01A48DD0
:1005C000A80FB92FB11DA35ABF4F2C91848D90E075
:1005D00001968F739927848FA689B7892C93A08958
:1005E000B1898C91837080648C93938D848D9813E2
:1005F00006C00288F389E02D80818F7D8083089575
:10060000EF92FF920F931F93CF93DF93EC0181E062
:10061000888F9B8D8C8D98131AC0E889F989808109
:1006200085FF15C09FB7F894EE89FF896083E8893C
:10063000F98980818370806480839FBF81E090E02E
:10064000DF91CF911F910F91FF90EF900895F62EBB
:100650000B8D10E00F5F1F4F0F731127E02E8C8D55
:100660008E110CC00FB607FCFACFE889F98980819A
:1006700085FFF5CFCE010E94DE02F1CFEB8DEC0FAE
:10068000FD2FF11DE35AFF4FF0829FB7F8940B8FB7
:10069000EA89FB8980818062CFCFCF93DF93EC0121
:1006A000888D8823B9F0AA89BB89E889F9898C915A
:1006B00085FD03C0808186FD0DC00FB607FCF7CF16
:1006C0008C9185FFF2CF808185FFEDCFCE010E9416
:1006D000DE02E9CFDF91CF910895FC010190002067
:1006E000E9F73197AF01481B590BBC018FE291E04C
:1006F0000C9460021F920F920FB60F9211242F9349
:100700003F938F939F93AF93BF93809127019091D5
:100710002801A0912901B0912A013091260123E0FE
:10072000230F2D3758F50196A11DB11D20932601E9
:100730008093270190932801A0932901B0932A0167
:1007400080912B0190912C01A0912D01B0912E014F
:100750000196A11DB11D80932B0190932C01A093B4
:100760002D01B0932E01BF91AF919F918F913F9139
:100770002F910F900FBE0F901F90189526E8230F12
:100780000296A11DB11DD2CF1F920F920FB60F92EC
:1007900011242F933F934F935F936F937F938F9386
:1007A0009F93AF93BF93EF93FF938FE291E00E94EB
:1007B000DE02FF91EF91BF91AF919F918F917F9159
:1007C0006F915F914F913F912F910F900FBE0F90BE
:1007D0001F9018951F920F920FB60F9211242F930E
:1007E0008F939F93EF93FF93E0913F01F09140012E
:1007F0008081E0914501F091460182FD1BC090810E
:10080000809148018F5F8F7320914901821741F0D9
:10081000E0914801F0E0E15DFE4F958F8093480143
:10082000FF91EF919F918F912F910F900FBE0F909D
:100830001F9018958081F4CFCF92DF92EF92FF92B4
:100840000F931F93E82FF92F05C0015011092109BB
:10085000310961F1908196239417B9F305C00150D5
:1008600011092109310911F1908196239413F7CFD1
:10087000C12CD12CE12CF12C0AC08FEFC81AD80A58
:10088000E80AF80A0C151D052E053F0579F0808150
:100890008623841791F36C2D7D2D8E2D9F2D1F9116
:1008A0000F91FF90EF90DF90CF90089560E070E09F
:1008B00080E090E01F910F91FF90EF90DF90CF903C
:1008C0000895109232011092310188EE93E0A0E079
:1008D000B0E08093330190933401A0933501B0933D
:1008E00036018AE091E09093300180932F0185ECEE
:1008F00090E090933C0180933B0184EC90E09093D6
:100900003E0180933D0180EC90E090934001809304
:100910003F0181EC90E0909342018093410182EC91
:1009200090E0909344018093430186EC90E0909393
:10093000460180934501109248011092490110929E
:100940004A0110924B011092CD011092D4011092E5
:10095000DB011092DC011092DD011092DE0181E0DA
:100960008093DA018093D7011092D80192E090939E
:10097000D9018093CC018AE590E09093D1018093D6
:10098000D0010E9439089093D6018093D501009739
:1009900089F12AE5FC0111922A95E9F78EE190E0B0
:1009A0009093CF018093CE0186E090E09093D301A5
:1009B0008093D2018091CD01882341F061E086E0EF
:1009C0000E943E0160E086E00E94F200E4EBF0E06D
:1009D000E491F0E0EE0FFF1FEC55FF4F85919491ED
:1009E0009093E0018093DF01E6E9F0E0E491E09389
:1009F000E10108951092D1011092D0011092CF011F
:100A00001092CE01D1CFCF93DF93CDB7DEB7A197B0
:100A10000FB6F894DEBF0FBECDBF789484B5826068
:100A200084BD84B5816084BD85B5826085BD85B592
:100A3000816085BD80916E00816080936E00109210
:100A4000810080918100826080938100809181008B
:100A5000816080938100809180008160809380001C
:100A60008091B10084608093B1008091B00081607A
:100A70008093B00080917A00846080937A008091A6
:100A80007A00826080937A0080917A0081608093FE
:100A90007A0080917A00806880937A001092C10079
:100AA000E0913F01F091400182E08083E0913B01C1
:100AB000F0913C011082E0913D01F0913E018FECFC
:100AC000808310924701E0914301F091440186E058
:100AD0008083E0914101F0914201808180618083B7
:100AE000E0914101F0914201808188608083E09132
:100AF0004101F0914201808180688083E091410151
:100B0000F091420180818F7D80838091D20190910C
:100B1000D30197FD08C061E00E943E0160E0809132
:100B2000D2010E94F20081E08093CD018091D50135
:100B30009091D601892B11F00E94940161E089E027
:100B40000E943E0160E08AE00E943E01B3E22B2E4B
:100B5000312C1AE0812E912CA12CB12C60E089E07F
:100B60000E94F20083E090E00197F1F761E089E0F4
:100B70000E94F200C1010197F1F760E089E00E9454
:100B8000F200EAE9F0E06491E8EBF0E08491E82F0C
:100B9000F0E0EE0FFF1FE859FF4F8591949100E4BC
:100BA00012E42FE030E0462F0E941C04611571050D
:100BB0008105910529F06F5F7F4F8F4F9F4F9F7089
:100BC00095958795779567950E9471072DEC3CEC7C
:100BD00048EE51E40E94C7060E9439072B013C01F0
:100BE00088E191E00E946D0377FE43C06DE28FE2E1
:100BF00091E00E94000322273327A9012419350917
:100C00004609570919A28E010F5D1F4FCA01B9018C
:100C1000A50194010E941108605DD8016E938D01B9
:100C2000211531054105510589F70115110519F007
:100C3000C8010E946D0383E291E00E946D0310E001
:100C400000E0FAE04F1651046104710444F580910C
:100C5000CE019091CF010817190708F04FC040E06E
:100C60005FEF60E070E0C8010E948D000F5F1F4FD2
:100C7000EECFA301920119A28E010F5D1F4FCA0191
:100C8000B901A50194010E941108605DF801629309
:100C90008F01211531054105510589F7C6CFF12C8A
:100CA000E12C2091CE013091CF01E216F30630F510
:100CB000C801B9010E94FD07462E512C712C612CF0
:100CC000320155244424C801880F991F880F991FA9
:100CD000B9010E94FD07462AC801880F991FB90172
:100CE0000E94FD07C201962BAC01B301C7010E940F
:100CF0008D009FEFE91AF90A1395D3CF8091D501A2
:100D00009091D601892B11F00E9494010E946F01ED
:100D10006B017C0182E3482E512C612C712C0E94C6
:100D20006F016C197D098E099F09683E734081052A
:100D30009105A8F3A1E04A1A510861087108B8EEBC
:100D4000CB0EB3E0DB1EE11CF11C41145104610425
:100D5000710429F780E090E0892B09F4FFCE0E940E
:100D6000CA02882309F4FACE0E940000F7CE8091CF
:100D7000D5019091D6010E94D5088091D201909121
:100D8000D30197FD03C060E00C943E0108950E94DA
:100D9000DB060C94C3070E94BC0758F00E94B507FD
:100DA00040F029F45F3F29F00C94AC0751110C94EA
:100DB000F7070C94B2070E94D40768F39923B1F3A4
:100DC000552391F3951B550BBB27AA276217730771
:100DD000840738F09F5F5F4F220F331F441FAA1F05
:100DE000A9F335D00E2E3AF0E0E832D091505040C1
:100DF000E695001CCAF72BD0FE2F29D0660F771F6F
:100E0000881FBB1F261737074807AB07B0E809F054
:100E1000BB0B802DBF01FF2793585F4F3AF09E3FD9
:100E2000510578F00C94AC070C94F7075F3FE4F39E
:100E3000983ED4F3869577956795B795F7959F5F1C
:100E4000C9F7880F911D9695879597F90895E1E068
:100E5000660F771F881FBB1F621773078407BA07C7
:100E600020F0621B730B840BBA0BEE1F88F7E09522
:100E700008950E9440076894B1110C94F7070895F3
:100E80000E94DC0788F09F5798F0B92F9927B75137
:100E9000B0F0E1F0660F771F881F991F1AF0BA951E
:100EA000C9F714C0B13091F00E94F607B1E008957F
:100EB0000C94F607672F782F8827B85F39F0B93F71
:100EC000CCF3869577956795B395D9F73EF49095D1
:100ED0008095709561957F4F8F4F9F4F0895E8944F
:100EE00009C097FB3EF490958095709561957F4F72
:100EF0008F4F9F4F9923A9F0F92F96E9BB27939520
:100F0000F695879577956795B795F111F8CFFAF42F
:100F1000BB0F11F460FF1BC06F5F7F4F8F4F9F4F60
:100F200016C0882311F096E911C0772321F09EE8BE
:100F3000872F762F05C0662371F096E8862F70E024
:100F400060E02AF09A95660F771F881FDAF7880FFE
:100F50009695879597F9089597F99F6780E870E0CF
:100F600060E008959FEF80EC089500240A9416161F
:100F7000170618060906089500240A941216130687
:100F8000140605060895092E0394000C11F4882315
:100F900052F0BB0F40F4BF2B11F460FF04C06F5F31
:100FA0007F4F8F4F9F4F089557FD9058440F551F07
:100FB00059F05F3F71F04795880F97FB991F61F0DB
:100FC0009F3F79F087950895121613061406551F52
:100FD000F2CF4695F1DF08C0161617061806991FBE
:100FE000F1CF86957105610508940895E894BB27B3
:100FF00066277727CB0197F90895AA1BBB1B51E100
:1010000007C0AA1FBB1FA617B70710F0A61BB70B78
:10101000881F991F5A95A9F780959095BC01CD011D
:101020000895A1E21A2EAA1BBB1BFD010DC0AA1F29
:10103000BB1FEE1FFF1FA217B307E407F50720F041
:10104000A21BB30BE40BF50B661F771F881F991FBC
:101050001A9469F760957095809590959B01AC0105
:10106000BD01CF010895EE0FFF1F0590F491E02D13
:1010700009940F931F93CF93DF938230910510F45F
:1010800082E090E0E091E401F091E50130E020E0C1
:10109000B0E0A0E0309799F42115310509F44AC079
:1010A000281B390B24303105D8F58A819B816115C5
:1010B000710589F1FB0193838283FE0111C0408198
:1010C00051810281138148175907E0F048175907E9
:1010D00099F4109761F012960C93129713961C9343
:1010E0003296CF01DF91CF911F910F910895009318
:1010F000E4011093E501F4CF2115310551F04217B9
:10110000530738F0A901DB019A01BD01DF01F801A5
:10111000C1CFEF01F9CF9093E5018093E401CDCFEA
:10112000FE01E20FF31F819391932250310939831D
:101130002883D7CF2091E2013091E301232B41F4A2
:1011400020910201309103013093E3012093E201E9
:1011500020910001309101012115310541F42DB795
:101160003EB74091040150910501241B350BE091DD
:10117000E201F091E301E217F307A0F42E1B3F0B0D
:101180002817390778F0AC014E5F5F4F24173507F9
:1011900048F04E0F5F1F5093E3014093E2018193AB
:1011A00091939FCFF0E0E0E09CCFCF93DF93009747
:1011B000E9F0FC01329713821282A091E401B09110
:1011C000E501ED0130E020E01097A1F420813181AC
:1011D000820F931F2091E2013091E3012817390714
:1011E00009F061C0F093E301E093E201DF91CF9158
:1011F0000895EA01CE17DF07E8F54A815B819E0179
:1012000041155105B1F7E901FB83EA8349915991F1
:10121000C40FD51FEC17FD0761F480819181029600
:10122000840F951FE90199838883828193819B8331
:101230008A83F0E0E0E012968D919C9113970097DD
:10124000B9F52D913C911197CD010296820F931F14
:101250002091E2013091E3012817390739F63097E0
:1012600051F51092E5011092E401B093E301A093CF
:10127000E201BCCFD383C28340815181840F951F8B
:10128000C817D90761F44E5F5F4F88819981480F75
:10129000591F518340838A819B81938382832115C7
:1012A000310509F0B0CFF093E501E093E4019ECF62
:1012B000FD01DC01C0CF13821282D7CF10E0C2E65D
:1012C000D0E004C0FE010E9433082196C336D10746
:1012D000C9F7F894FFCF0000E6018000000000008D
:1012E000000360028D024D03BE029C02B0024469FD
:0C12F0007374616E63653A20000D0A0003
:107E0000112484B714BE81FFF0D085E080938100F7
:107E100082E08093C00088E18093C10086E0809377
:107E2000C20080E18093C4008EE0C9D0259A86E02C
:107E300020E33CEF91E0309385002093840096BBD3
:107E4000B09BFECF1D9AA8958150A9F7CC24DD24C4
:107E500088248394B5E0AB2EA1E19A2EF3E0BF2EE7
:107E6000A2D0813461F49FD0082FAFD0023811F036
:107E7000013811F484E001C083E08DD089C08234E0
:107E800011F484E103C0853419F485E0A6D080C0E4
:107E9000853579F488D0E82EFF2485D0082F10E0AE
:107EA000102F00270E291F29000F111F8ED06801E7
:107EB0006FC0863521F484E090D080E0DECF843638
:107EC00009F040C070D06FD0082F6DD080E0C81688
:107ED00080E7D80618F4F601B7BEE895C0E0D1E017
:107EE00062D089930C17E1F7F0E0CF16F0E7DF06D8
:107EF00018F0F601B7BEE89568D007B600FCFDCFD4
:107F0000A601A0E0B1E02C9130E011968C91119780
:107F100090E0982F8827822B932B1296FA010C0160
:107F200087BEE89511244E5F5F4FF1E0A038BF0790
:107F300051F7F601A7BEE89507B600FCFDCF97BE46
:107F4000E89526C08437B1F42ED02DD0F82E2BD052
:107F50003CD0F601EF2C8F010F5F1F4F84911BD097
:107F6000EA94F801C1F70894C11CD11CFA94CF0C13
:107F7000D11C0EC0853739F428D08EE10CD085E9AC
:107F80000AD08FE07ACF813511F488E018D01DD067
:107F900080E101D065CF982F8091C00085FFFCCF94
:107FA0009093C60008958091C00087FFFCCF809118
:107FB000C00084FD01C0A8958091C6000895E0E648
:107FC000F0E098E1908380830895EDDF803219F02E
:107FD00088E0F5DFFFCF84E1DECF1F93182FE3DFCA
:107FE0001150E9F7F2DF1F91089580E0E8DFEE27F6
:047FF000FF270994CA
:027FFE00040479
:00000001FF
