:020000040000FA
:100000000C9463000C948B000C948B000C948B006C
:100010000C948B000C948B000C948B000C948B0034
:100020000C948B000C948B000C948B000C948B0024
:100030000C948B000C948B000C948B000C948B0014
:100040000C94E4030C948B000C9454040C942E0434
:100050000C948B000C948B000C948B000C948B00F4
:100060000C948B000C948B000000000023002600F1
:10007000290000000000240027002A0000000008DA
:10008000000201000003040700000000000000005F
:10009000010204081020408001020408102001021F
:1000A0000408102000000000250028002B00040494
:1000B0000404040404040202020202020303030310
:1000C0000303CB04740711241FBECFEFD8E0DEBFBB
:1000D000CDBF22E0A2E4B1E001C01D92A830B2077A
:1000E000E1F711E0A0E0B1E0E2E5F6E102C0059041
:1000F0000D92A234B107D9F710E0C2E6D0E004C0F7
:100100002197FE010E941B09C136D107C9F70E9441
:10011000A1050C941C0B0C9400004F925F926F92FF
:100120007F928F929F92AF92BF92FF922091F001A7
:100130003091F1018217930708F043C02B01662428
:100140007724852E962EA72EBB24B82DA42F209180
:10015000F601F42C222391F0E22FF0E0E49DD0018F
:10016000E59DB00DF49DB00D1124FB2E289D40019E
:100170001124B92D249F90011124A32FE091FC019B
:100180002091F7013091F8015091F901E51323C056
:10019000FC01EE0FFF1F8E0F9F1F820F931FE09138
:1001A000F901E80FF92FF11DF082E091FA01E80F53
:1001B000F92FF11DB0832091FB01820F911DFC01ED
:1001C000A083FF90BF90AF909F908F907F906F9093
:1001D0005F904F900895880F991F880F991F820F85
:1001E000931FE80FF92FF11D1082D9CF90E0FC0189
:1001F000E458FF4F2491FC01E057FF4F3491FC017C
:10020000E255FF4FE491EE23C9F0222339F0233069
:1002100001F1A8F4213019F1223029F1F0E0EE0FBC
:10022000FF1FEC55FF4FA591B4918FB7F894EC9157
:10023000611126C030953E233C938FBF089527302F
:10024000A9F02830C9F0243049F7809180008F7DD3
:1002500003C0809180008F7780938000DFCF84B5CA
:100260008F7784BDDBCF84B58F7DFBCF8091B000CD
:100270008F778093B000D2CF8091B0008F7DF9CF7F
:100280003E2BDACFCF93DF9390E0FC01E057FF4F96
:10029000249182559F4FFC0184918823D1F090E0F6
:1002A000880F991FFC01EE58FF4FA591B491FC01F6
:1002B000EC55FF4FC591D49161110EC09FB7F894D2
:1002C0008C91E22FE0958E238C932881E223E883A2
:1002D0009FBFDF91CF9108958FB7F894EC91E22BF7
:1002E000EC938FBFF6CF3FB7F89480914701909180
:1002F0004801A0914901B0914A0126B5A89B05C0CB
:100300002F3F19F00196A11DB11D3FBFBA2FA92F94
:10031000982F8827BC01CD01620F711D811D911D91
:1003200042E0660F771F881F991F4A95D1F70895FD
:100330000F931F93CF93DF93CDB7DEB729970FB6F7
:10034000F894DEBF0FBECDBF0E9473010091FD0186
:100350001091FE012091FF0130910002601771079A
:100360008207930740F46093FD017093FE01809330
:10037000FF01909300020091FD011091FE01209178
:10038000FF0130910002601B710B820B930B6C32EA
:10039000714081059105C0F2F8948091F20190912D
:1003A000F3019A838983E091F701F091F801DF016D
:1003B0001196808189879091EE01E0910102F09180
:1003C000020280910302992309F445C09081982B81
:1003D00098879081809589238F838F818C8388E093
:1003E0008B8358856F8149853B812C8189819A81D6
:1003F000508347FD252F3A952083262F39F0441F3F
:1004000000C000006083000000C0F2CF38E04D91D2
:1004100060830000019761F7F0930202E09301020C
:1004200049873B832C839A83898378940E94730144
:100430006093FD017093FE018093FF019093000291
:1004400029960FB6F894DEBF0FBECDBFDF91CF91D6
:100450001F910F9108959081982B98879081809596
:1004600089238F838F818E8388E08D8358856F8168
:1004700049853D812E8189819A81508347FD252FB1
:1004800000C000C0208300C000C000C000C000C089
:1004900060830000262F3A9541F0441F000000C001
:1004A00000C000C000C000C0E8CF38E04D9100C0DF
:1004B000608300C0019709F7F0930202E093010204
:1004C00049873D832E83AFCFAF92BF92CF92DF9209
:1004D000EF92FF920F931F93CF93DF936C017B01F9
:1004E0008B01040F151FEB015E01AE18BF08C0178A
:1004F000D10759F06991D601ED91FC910190F081FD
:10050000E02DC6010995892B79F7C501DF91CF91BF
:100510001F910F91FF90EF90DF90CF90BF90AF9021
:100520000895FC01538D448D252F30E0842F90E0F9
:10053000821B930B541710F0CF96089501970895DE
:10054000FC01918D828D981761F0A28DAE0FBF2FA7
:10055000B11D5D968C91928D9F5F9F73928F90E0FD
:1005600008958FEF9FEF0895FC01918D828D98176C
:1005700031F0828DE80FF11D858D90E008958FEFA9
:100580009FEF0895FC01918D228D892F90E0805C72
:100590009F4F821B91098F73992708958BE491E0F7
:1005A0000E94C20221E0892B09F420E0822F0895E5
:1005B00080E090E0892B29F00E94CE0281110C94FA
:1005C00000000895FC01A48DA80FB92FB11DA35AF6
:1005D000BF4F2C91848D90E001968F739927848F63
:1005E000A689B7892C93A089B1898C918370806486
:1005F0008C93938D848D981306C00288F389E02D27
:1006000080818F7D80830895EF92FF920F931F93D7
:10061000CF93DF93EC0181E0888F9B8D8C8D9813B5
:100620001AC0E889F989808185FF15C09FB7F894C1
:10063000EE89FF896083E889F9898081837080640D
:1006400080839FBF81E090E0DF91CF911F910F9158
:10065000FF90EF900895F62E0B8D10E00F5F1F4F67
:100660000F731127E02E8C8D8E110CC00FB607FC76
:10067000FACFE889F989808185FFF5CFCE010E9404
:10068000E202F1CFEB8DEC0FFD2FF11DE35AFF4F8E
:10069000F0829FB7F8940B8FEA89FB898081806292
:1006A000CFCFCF93DF93EC01888D8823B9F0AA894F
:1006B000BB89E889F9898C9185FD03C0808186FD1D
:1006C0000DC00FB607FCF7CF8C9185FFF2CF80816C
:1006D00085FFEDCFCE010E94E202E9CFDF91CF91FD
:1006E0000895FC0101900020E9F73197AF01481B04
:1006F000590BBC018BE491E00C946402CF93DF931F
:10070000EC018091E8019091E901009759F0209166
:10071000EA013091EB012C173D0720F081E0DF91D9
:10072000CF910895BE016F5F7F4F0E94460A0097E8
:1007300089F09093E9018093E801D093EB01C09395
:10074000EA012091EC013091ED01232B39F7FC01F6
:100750001082E4CF80E0E3CF0F931F93CF93DF931A
:100760008C01EC0109900020E9F72197C81BD90BF7
:10077000CE010E947E032091E8013091E9018111B0
:1007800017C02115310519F0C9010E94BD09109249
:10079000E9011092E8011092ED011092EC01109223
:1007A000EB011092EA01DF91CF911F910F91089513
:1007B000D093ED01C093EC01B801C901DF91CF9155
:1007C0001F910F910C94150B1F920F920FB60F9261
:1007D00011242F933F938F939F93AF93BF93809157
:1007E000430190914401A0914501B091460130919F
:1007F000420123E0230F2D3758F50196A11DB11DAD
:10080000209342018093430190934401A0934501BA
:10081000B09346018091470190914801A091490110
:10082000B0914A010196A11DB11D8093470190939B
:100830004801A0934901B0934A01BF91AF919F91A4
:100840008F913F912F910F900FBE0F901F90189591
:1008500026E8230F0296A11DB11DD2CF1F920F9241
:100860000FB60F9211242F933F934F935F936F9383
:100870007F938F939F93AF93BF93EF93FF938BE4FB
:1008800091E00E94E202FF91EF91BF91AF919F91A1
:100890008F917F916F915F914F913F912F910F9029
:1008A0000FBE0F901F9018951F920F920FB60F92C8
:1008B00011242F938F939F93EF93FF93E0915B010C
:1008C000F0915C018081E0916101F091620182FD13
:1008D0001BC09081809164018F5F8F7320916501AF
:1008E000821741F0E0916401F0E0E55BFE4F958FE7
:1008F00080936401FF91EF919F918F912F910F90C1
:100900000FBE0F901F9018958081F4CFCF92DF9289
:10091000EF92FF920F931F93E82FF92F05C001501C
:1009200011092109310961F1908196239417B9F3D6
:1009300005C0015011092109310911F19081962357
:100940009413F7CFC12CD12CE12CF12C0AC08FEFDE
:10095000C81AD80AE80AF80A0C151D052E053F0525
:1009600079F080818623841791F36C2D7D2D8E2D57
:100970009F2D1F910F91FF90EF90DF90CF900895E2
:1009800060E070E080E090E01F910F91FF90EF90A9
:10099000DF90CF90089510924E0110924D0188EE95
:1009A00093E0A0E0B0E080934F0190935001A093BA
:1009B0005101B09352018AE091E090934C018093F1
:1009C0004B0185EC90E0909358018093570184ECA3
:1009D00090E090935A018093590180EC90E09093BD
:1009E0005C0180935B0181EC90E090935E018093C9
:1009F0005D0182EC90E09093600180935F0186EC52
:100A000090E09093620180936101109264011092D2
:100A1000650110926601109267011092EF01109229
:100A2000F6011092FD011092FE011092FF0110924A
:100A3000000281E08093FC018093F9011092FA0199
:100A400092E09093FB018093EE018AE590E0909311
:100A5000F3018093F2010E9421099093F8018093A1
:100A6000F701009709F459C02AE5FC0111922A9573
:100A7000E9F78EE190E09093F1018093F00186E038
:100A800090E09093F5018093F4018091EF01882329
:100A900041F061E086E00E94420160E086E00E9451
:100AA000F600E4EBF0E0E491F0E0EE0FFF1FEC5510
:100AB000FF4F859194919093020280930102E6E9A1
:100AC000F0E0E491E09303021092E9011092E80152
:100AD0001092EB011092EA011092ED011092EC01DC
:100AE00083E090E00E947E032091E8013091E901CB
:100AF00081111CC02115310519F0C9010E94BD09E1
:100B00001092E9011092E8011092ED011092EC01AF
:100B10001092EB011092EA0108951092F3011092E5
:100B2000F2011092F1011092F001A9CF83E090E060
:100B30009093ED018093EC0168E171E0C9010C94A0
:100B4000150BCF93DF93CDB7DEB7A1970FB6F8940F
:100B5000DEBF0FBECDBF789484B5826084BD84B5FE
:100B6000816084BD85B5826085BD85B5816085BDA8
:100B700080916E00816080936E0010928100809160
:100B800081008260809381008091810081608093E8
:100B90008100809180008160809380008091B1000D
:100BA00084608093B1008091B00081608093B00038
:100BB00080917A00846080937A0080917A008260CC
:100BC00080937A0080917A00816080937A0080918E
:100BD0007A00806880937A001092C100E0915B01F6
:100BE000F0915C0182E08083E0915701F09158011F
:100BF0001082E0915901F0915A018FEC808310929C
:100C00006301E0915F01F091600186E08083E091F3
:100C10005D01F0915E01808180618083E0915D01E2
:100C2000F0915E01808188608083E0915D01F091A8
:100C30005E01808180688083E0915D01F0915E01BA
:100C400080818F7D80838091F4019091F50197FDE3
:100C500008C061E00E94420160E08091F4010E94BE
:100C6000F60081E08093EF018091F7019091F80107
:100C7000892B11F00E94980161E089E00E944201F5
:100C800060E08AE00E9442018CE191E00E94AC03A6
:100C900043E0242E312C5AE0452E512C612C712C2E
:100CA00060E089E00E94F600C1010197F1F761E080
:100CB00089E00E94F60083E290E00197F1F760E09E
:100CC00089E00E94F600EAE9F0E06491E8EBF0E0E8
:100CD0008491E82FF0E0EE0FFF1FE859FF4F859158
:100CE000949100E412E42FE030E0462F0E94860445
:100CF000611571058105910529F06F5F7F4F8F4F59
:100D00009F4F9F7095958795779567950E948E0761
:100D10002DE13AE545E952E40E9451080E94C308DA
:100D20006B017C0181E291E00E947103F7FE4BC0F0
:100D30006DE28BE491E00E94040322273327A9018E
:100D40002C193D094E095F0919A28E010F5D1F4F35
:100D5000CA01B901A30192010E94F908605DF8017E
:100D600062938F01211531054105510589F7011560
:100D7000110519F0C8010E9471038CE291E00E94F4
:100D800071038FE291E00E947103FAE0CF16D10463
:100D9000E104F10474F587E391E00E94AC0310E0F4
:100DA00000E08091F0019091F1010817190708F017
:100DB0008EC040E05FEF60E070E0C8010E948D00EF
:100DC0000F5F1F4FEECFA701960119A28E010F5D95
:100DD0001F4FCA01B901A30192010E94F908605D89
:100DE000F80162938F01211531054105510589F7FD
:100DF000BECF2AE0C216D104E104F10419F18091BA
:100E0000EC019091ED01892BE9F067E371E08091AD
:100E1000E8019091E9010E940C0B8C01892B91F45F
:100E20008091F0019091F1010817190708F04FC067
:100E300040E050E06FEF70E0C8010E948D000F5F4E
:100E40001F4FEECF10E000E08091F0019091F10192
:100E50000817190780F440E056E66FEF70E000FFD6
:100E600004C04EEB56E965E270E0C8010E948D00B7
:100E70000F5F1F4FE9CF8091F7019091F801892B07
:100E800011F00E9498010E9473014B015C0182E302
:100E9000C82ED12CE12CF12C0E947301681979091C
:100EA0008A099B09683E734081059105A8F381E09A
:100EB000C81AD108E108F10898EE890E93E0991E4E
:100EC000A11CB11CC114D104E104F10429F780E094
:100ED00090E0892B09F4E4CE0E94CE02882309F425
:100EE000DFCE0E940000DCCE8091E8019091E90104
:100EF000009711F00E94BD098091F7019091F801CF
:100F00000E94BD098091F4019091F50197FD03C005
:100F100060E00C9442010895E89409C097FB3EF408
:100F200090958095709561957F4F8F4F9F4F992336
:100F3000A9F0F92F96E9BB279395F69587957795B4
:100F40006795B795F111F8CFFAF4BB0F11F460FF74
:100F50001BC06F5F7F4F8F4F9F4F16C0882311F0CC
:100F600096E911C0772321F09EE8872F762F05C0E0
:100F7000662371F096E8862F70E060E02AF09A957B
:100F8000660F771F881FDAF7880F9695879597F970
:100F9000089597F99F6780E870E060E008959FEFFB
:100FA00080EC089500240A94161617061806090600
:100FB000089500240A9412161306140605060895CF
:100FC000092E0394000C11F4882352F0BB0F40F457
:100FD000BF2B11F460FF04C06F5F7F4F8F4F9F4F97
:100FE000089557FD9058440F551F59F05F3F71F019
:100FF0004795880F97FB991F61F09F3F79F0879580
:101000000895121613061406551FF2CF4695F1DF08
:1010100008C0161617061806991FF1CF8695710598
:10102000610508940895E894BB2766277727CB01CC
:1010300097F908952F923F924F925F926F927F920D
:101040008F929F92AF92BF92CF92DF92EF92FF92D8
:101050000F931F93CF93DF93CDB7DEB7CA1BDB0B84
:101060000FB6F894DEBF0FBECDBF09942A88398829
:1010700048885F846E847D848C849B84AA84B98430
:10108000C884DF80EE80FD800C811B81AA81B9813C
:10109000CE0FD11D0FB6F894DEBF0FBECDBFED0150
:1010A00008950E9465080C94E0070E94D90758F043
:1010B0000E94D20740F029F45F3F29F00C94C90741
:1010C00051110C9414080C94CF070E94F10768F397
:1010D0009923B1F3552391F3951B550BBB27AA27F1
:1010E00062177307840738F09F5F5F4F220F331F2B
:1010F000441FAA1FA9F335D00E2E3AF0E0E832D0F3
:1011000091505040E695001CCAF72BD0FE2F29D0F5
:10111000660F771F881FBB1F261737074807AB07C7
:10112000B0E809F0BB0B802DBF01FF2793585F4F3C
:101130003AF09E3F510578F00C94C9070C941408BE
:101140005F3FE4F3983ED4F3869577956795B7951E
:10115000F7959F5FC9F7880F911D9695879597F929
:101160000895E1E0660F771F881FBB1F62177307A2
:101170008407BA0720F0621B730B840BBA0BEE1FB7
:1011800088F7E09508950E94CA086894B1110C94FC
:10119000140808950E94F90788F09F5798F0B92F16
:1011A0009927B751B0F0E1F0660F771F881F991F9C
:1011B0001AF0BA95C9F714C0B13091F00E94130823
:1011C000B1E008950C941308672F782F8827B85F33
:1011D00039F0B93FCCF3869577956795B395D9F7F4
:1011E0003EF490958095709561957F4F8F4F9F4FFE
:1011F0000895A1E21A2EAA1BBB1BFD010DC0AA1F58
:10120000BB1FEE1FFF1FA217B307E407F50720F06F
:10121000A21BB30BE40BF50B661F771F881F991FEA
:101220001A9469F760957095809590959B01AC0133
:10123000BD01CF010895EE0FFF1F0590F491E02D41
:1012400009940F931F93CF93DF938230910510F48D
:1012500082E090E0E0910602F091070230E020E0A9
:10126000B0E0A0E0309799F42115310509F44AC0A7
:10127000281B390B24303105D8F58A819B816115F3
:10128000710589F1FB0193838283FE0111C04081C6
:1012900051810281138148175907E0F04817590717
:1012A00099F4109761F012960C93129713961C9371
:1012B0003296CF01DF91CF911F910F910895009346
:1012C000060210930702F4CF2115310551F04217A1
:1012D000530738F0A901DB019A01BD01DF01F801D4
:1012E000C1CFEF01F9CF9093070280930602CDCFD3
:1012F000FE01E20FF31F819391932250310939834C
:101300002883D7CF2091040230910502232B41F48A
:1013100020910201309103013093050220930402D1
:1013200020910001309101012115310541F42DB7C3
:101330003EB74091040150910501241B350BE0910B
:101340000402F0910502E217F307A0F42E1B3F0BF5
:101350002817390778F0AC014E5F5F4F2417350727
:1013600048F04E0F5F1F5093050240930402819393
:1013700091939FCFF0E0E0E09CCFCF93DF93009775
:10138000E9F0FC01329713821282A0910602B0911B
:101390000702ED0130E020E01097A1F420813181B7
:1013A000820F931F209104023091050228173907FC
:1013B00009F061C0F0930502E0930402DF91CF9140
:1013C0000895EA01CE17DF07E8F54A815B819E01A7
:1013D00041155105B1F7E901FB83EA834991599120
:1013E000C40FD51FEC17FD0761F48081918102962F
:1013F000840F951FE90199838883828193819B8360
:101400008A83F0E0E0E012968D919C91139700970B
:10141000B9F52D913C911197CD010296820F931F42
:1014200020910402309105022817390739F63097C8
:1014300051F51092070210920602B0930502A09394
:101440000402BCCFD383C28340815181840F951F96
:10145000C817D90761F44E5F5F4F88819981480FA3
:10146000591F518340838A819B81938382832115F5
:10147000310509F0B0CFF0930702E09306029ECF4A
:10148000FD01DC01C0CF13821282D7CFB0E0A0E013
:10149000ECE4FAE00C941C088C01009751F4CB01A9
:1014A0000E9421098C01C801CDB7DEB7E0E10C94A0
:1014B0003808FC01E60FF71F9C0122503109E217A2
:1014C000F30708F49DC0D901CD91DC911197C6179F
:1014D000D70798F0C530D10530F3CE0104978617B1
:1014E000970708F3C61BD70B2297C193D1936D932F
:1014F0007C93CF010E94BD09D6CF5B01AC1ABD0A17
:101500004C018C0E9D1EA0910602B0910702512C39
:10151000412CF12CE12C109731F58091040290912F
:1015200005028815990509F05CC04616570608F0B3
:1015300058C08091000190910101009741F48DB74E
:101540009EB74091040150910501841B950BE8174B
:10155000F90708F055C0F0930502E0930402F90181
:1015600071836083A0CF8D919C91119712966C909E
:10157000129713967C901397A815B90559F56C012D
:1015800042E0C40ED11CCA14DB0420F1AC014A199C
:101590005B09DA011296159780F06282738251839B
:1015A0004083D9016D937C93E114F10471F0D7016C
:1015B0001396FC93EE93129776CF22968C0F9D1F75
:1015C000F90191838083F301EFCFF0930702E09359
:1015D000060269CF4816590608F42C017D01D30193
:1015E0009ACFCB010E9421097C01009749F0AE01FE
:1015F000B8010E94030BC8010E94BD09870153CFA7
:1016000010E000E050CFFB01DC0102C001900D9220
:1016100041505040D8F70895FB01DC018D910190B5
:1016200080190110D9F3990B0895FB01DC01019099
:101630000D920020E1F7089510E0C2E6D0E004C06A
:10164000FE010E941B092196C336D107C9F7F89401
:10165000FFCF0000080280000000000004036402C5
:1016600091025103C202A002B4026F66660069646F
:101670006C650044697374616E63653A20000D0AFD
:101680000020696E636865730067616D6520746929
:041690006D65000084
:107E0000112484B714BE81FFF0D085E080938100F7
:107E100082E08093C00088E18093C10086E0809377
:107E2000C20080E18093C4008EE0C9D0259A86E02C
:107E300020E33CEF91E0309385002093840096BBD3
:107E4000B09BFECF1D9AA8958150A9F7CC24DD24C4
:107E500088248394B5E0AB2EA1E19A2EF3E0BF2EE7
:107E6000A2D0813461F49FD0082FAFD0023811F036
:107E7000013811F484E001C083E08DD089C08234E0
:107E800011F484E103C0853419F485E0A6D080C0E4
:107E9000853579F488D0E82EFF2485D0082F10E0AE
:107EA000102F00270E291F29000F111F8ED06801E7
:107EB0006FC0863521F484E090D080E0DECF843638
:107EC00009F040C070D06FD0082F6DD080E0C81688
:107ED00080E7D80618F4F601B7BEE895C0E0D1E017
:107EE00062D089930C17E1F7F0E0CF16F0E7DF06D8
:107EF00018F0F601B7BEE89568D007B600FCFDCFD4
:107F0000A601A0E0B1E02C9130E011968C91119780
:107F100090E0982F8827822B932B1296FA010C0160
:107F200087BEE89511244E5F5F4FF1E0A038BF0790
:107F300051F7F601A7BEE89507B600FCFDCF97BE46
:107F4000E89526C08437B1F42ED02DD0F82E2BD052
:107F50003CD0F601EF2C8F010F5F1F4F84911BD097
:107F6000EA94F801C1F70894C11CD11CFA94CF0C13
:107F7000D11C0EC0853739F428D08EE10CD085E9AC
:107F80000AD08FE07ACF813511F488E018D01DD067
:107F900080E101D065CF982F8091C00085FFFCCF94
:107FA0009093C60008958091C00087FFFCCF809118
:107FB000C00084FD01C0A8958091C6000895E0E648
:107FC000F0E098E1908380830895EDDF803219F02E
:107FD00088E0F5DFFFCF84E1DECF1F93182FE3DFCA
:107FE0001150E9F7F2DF1F91089580E0E8DFEE27F6
:047FF000FF270994CA
:027FFE00040479
:00000001FF
